{
  "_format": "hh-sol-artifact-1",
  "contractName": "Raffle",
  "sourceName": "contracts/Raffle.sol",
  "abi": [
    {
      "inputs": [
        {
          "internalType": "address",
          "name": "vrfCoordinatorV2",
          "type": "address"
        },
        {
          "internalType": "uint256",
          "name": "enteranceFee",
          "type": "uint256"
        },
        {
          "internalType": "bytes32",
          "name": "gasLane",
          "type": "bytes32"
        },
        {
          "internalType": "uint64",
          "name": "subscriptionId",
          "type": "uint64"
        },
        {
          "internalType": "uint32",
          "name": "callbackGasLimit",
          "type": "uint32"
        },
        {
          "internalType": "uint256",
          "name": "interval",
          "type": "uint256"
        }
      ],
      "stateMutability": "nonpayable",
      "type": "constructor"
    },
    {
      "inputs": [
        {
          "internalType": "address",
          "name": "have",
          "type": "address"
        },
        {
          "internalType": "address",
          "name": "want",
          "type": "address"
        }
      ],
      "name": "OnlyCoordinatorCanFulfill",
      "type": "error"
    },
    {
      "inputs": [],
      "name": "Raffle__NotEnoughETHEntered",
      "type": "error"
    },
    {
      "inputs": [],
      "name": "Raffle__NotOpen",
      "type": "error"
    },
    {
      "inputs": [],
      "name": "Raffle__TransferFaild",
      "type": "error"
    },
    {
      "inputs": [
        {
          "internalType": "uint256",
          "name": "currentBalance",
          "type": "uint256"
        },
        {
          "internalType": "uint256",
          "name": "numPlayers",
          "type": "uint256"
        },
        {
          "internalType": "uint256",
          "name": "raffleState",
          "type": "uint256"
        }
      ],
      "name": "Raffle__UpKeepNotNeeded",
      "type": "error"
    },
    {
      "anonymous": false,
      "inputs": [
        {
          "indexed": true,
          "internalType": "address",
          "name": "players",
          "type": "address"
        }
      ],
      "name": "RaffleEnter",
      "type": "event"
    },
    {
      "anonymous": false,
      "inputs": [
        {
          "indexed": true,
          "internalType": "uint256",
          "name": "reqeustId",
          "type": "uint256"
        }
      ],
      "name": "RequestedRaffleWinner",
      "type": "event"
    },
    {
      "anonymous": false,
      "inputs": [
        {
          "indexed": true,
          "internalType": "address",
          "name": "winner",
          "type": "address"
        }
      ],
      "name": "WinnerPicked",
      "type": "event"
    },
    {
      "inputs": [
        {
          "internalType": "bytes",
          "name": "",
          "type": "bytes"
        }
      ],
      "name": "checkUpkeep",
      "outputs": [
        {
          "internalType": "bool",
          "name": "upkeepNeeded",
          "type": "bool"
        },
        {
          "internalType": "bytes",
          "name": "",
          "type": "bytes"
        }
      ],
      "stateMutability": "view",
      "type": "function"
    },
    {
      "inputs": [],
      "name": "enterRaffle",
      "outputs": [],
      "stateMutability": "payable",
      "type": "function"
    },
    {
      "inputs": [],
      "name": "geNumberOfPlayers",
      "outputs": [
        {
          "internalType": "uint256",
          "name": "",
          "type": "uint256"
        }
      ],
      "stateMutability": "view",
      "type": "function"
    },
    {
      "inputs": [],
      "name": "getEntranceFee",
      "outputs": [
        {
          "internalType": "uint256",
          "name": "",
          "type": "uint256"
        }
      ],
      "stateMutability": "view",
      "type": "function"
    },
    {
      "inputs": [],
      "name": "getLatestTimeStamp",
      "outputs": [
        {
          "internalType": "uint256",
          "name": "",
          "type": "uint256"
        }
      ],
      "stateMutability": "view",
      "type": "function"
    },
    {
      "inputs": [],
      "name": "getNumWords",
      "outputs": [
        {
          "internalType": "uint256",
          "name": "",
          "type": "uint256"
        }
      ],
      "stateMutability": "pure",
      "type": "function"
    },
    {
      "inputs": [
        {
          "internalType": "uint256",
          "name": "index",
          "type": "uint256"
        }
      ],
      "name": "getPlayer",
      "outputs": [
        {
          "internalType": "address",
          "name": "",
          "type": "address"
        }
      ],
      "stateMutability": "view",
      "type": "function"
    },
    {
      "inputs": [],
      "name": "getRaffleState",
      "outputs": [
        {
          "internalType": "enum Raffle.RaffleState",
          "name": "",
          "type": "uint8"
        }
      ],
      "stateMutability": "view",
      "type": "function"
    },
    {
      "inputs": [],
      "name": "getRecentWinner",
      "outputs": [
        {
          "internalType": "address",
          "name": "",
          "type": "address"
        }
      ],
      "stateMutability": "view",
      "type": "function"
    },
    {
      "inputs": [],
      "name": "getRequestConfirmations",
      "outputs": [
        {
          "internalType": "uint256",
          "name": "",
          "type": "uint256"
        }
      ],
      "stateMutability": "pure",
      "type": "function"
    },
    {
      "inputs": [
        {
          "internalType": "bytes",
          "name": "",
          "type": "bytes"
        }
      ],
      "name": "performUpkeep",
      "outputs": [],
      "stateMutability": "nonpayable",
      "type": "function"
    },
    {
      "inputs": [
        {
          "internalType": "uint256",
          "name": "requestId",
          "type": "uint256"
        },
        {
          "internalType": "uint256[]",
          "name": "randomWords",
          "type": "uint256[]"
        }
      ],
      "name": "rawFulfillRandomWords",
      "outputs": [],
      "stateMutability": "nonpayable",
      "type": "function"
    }
  ],
  "bytecode": "0x6101406040523480156200001257600080fd5b50604051620017c0380380620017c08339818101604052810190620000389190620002a0565b858073ffffffffffffffffffffffffffffffffffffffff1660808173ffffffffffffffffffffffffffffffffffffffff1681525050508460a081815250508573ffffffffffffffffffffffffffffffffffffffff1660c08173ffffffffffffffffffffffffffffffffffffffff16815250508360e0818152505082600160006101000a81548167ffffffffffffffff021916908367ffffffffffffffff1602179055508163ffffffff166101008163ffffffff16815250506000600360146101000a81548160ff021916908360018111156200011957620001186200033c565b5b0217905550426002819055508061012081815250505050505050506200036b565b600080fd5b600073ffffffffffffffffffffffffffffffffffffffff82169050919050565b60006200016c826200013f565b9050919050565b6200017e816200015f565b81146200018a57600080fd5b50565b6000815190506200019e8162000173565b92915050565b6000819050919050565b620001b981620001a4565b8114620001c557600080fd5b50565b600081519050620001d981620001ae565b92915050565b6000819050919050565b620001f481620001df565b81146200020057600080fd5b50565b6000815190506200021481620001e9565b92915050565b600067ffffffffffffffff82169050919050565b62000239816200021a565b81146200024557600080fd5b50565b60008151905062000259816200022e565b92915050565b600063ffffffff82169050919050565b6200027a816200025f565b81146200028657600080fd5b50565b6000815190506200029a816200026f565b92915050565b60008060008060008060c08789031215620002c057620002bf6200013a565b5b6000620002d089828a016200018d565b9650506020620002e389828a01620001c8565b9550506040620002f689828a0162000203565b94505060606200030989828a0162000248565b93505060806200031c89828a0162000289565b92505060a06200032f89828a01620001c8565b9150509295509295509295565b7f4e487b7100000000000000000000000000000000000000000000000000000000600052602160045260246000fd5b60805160a05160c05160e05161010051610120516113f7620003c96000396000610798015260006106560152600061061c015260006105e00152600081816102b401526103b10152600081816102f1015261034501526113f76000f3fe6080604052600436106100a75760003560e01c8063473f1ddc11610064578063473f1ddc1461018957806353a2c19a146101b45780635f1b0fd8146101df5780636e04ff0d1461020a578063cee5598f14610248578063e55ae4e814610273576100a7565b806309bc33a7146100ac578063115cbaf5146100d75780631fe543e3146101025780632cfcc5391461012b578063320229eb146101355780634585e33b14610160575b600080fd5b3480156100b857600080fd5b506100c16102b0565b6040516100ce9190610b81565b60405180910390f35b3480156100e357600080fd5b506100ec6102d8565b6040516100f99190610c13565b60405180910390f35b34801561010e57600080fd5b5061012960048036038101906101249190610dc7565b6102ef565b005b6101336103af565b005b34801561014157600080fd5b5061014a61051e565b6040516101579190610b81565b60405180910390f35b34801561016c57600080fd5b5061018760048036038101906101829190610e7e565b610528565b005b34801561019557600080fd5b5061019e61070f565b6040516101ab9190610f0c565b60405180910390f35b3480156101c057600080fd5b506101c9610739565b6040516101d69190610b81565b60405180910390f35b3480156101eb57600080fd5b506101f4610748565b6040516102019190610b81565b60405180910390f35b34801561021657600080fd5b50610231600480360381019061022c9190610fdc565b610755565b60405161023f9291906110bf565b60405180910390f35b34801561025457600080fd5b5061025d61083d565b60405161026a9190610b81565b60405180910390f35b34801561027f57600080fd5b5061029a600480360381019061029591906110ef565b610849565b6040516102a79190610f0c565b60405180910390f35b60007f0000000000000000000000000000000000000000000000000000000000000000905090565b6000600360149054906101000a900460ff16905090565b7f000000000000000000000000000000000000000000000000000000000000000073ffffffffffffffffffffffffffffffffffffffff163373ffffffffffffffffffffffffffffffffffffffff16146103a157337f00000000000000000000000000000000000000000000000000000000000000006040517f1cf993f400000000000000000000000000000000000000000000000000000000815260040161039892919061111c565b60405180910390fd5b6103ab8282610890565b5050565b7f0000000000000000000000000000000000000000000000000000000000000000341015610409576040517fbd4e069500000000000000000000000000000000000000000000000000000000815260040160405180910390fd5b6000600181111561041d5761041c610b9c565b5b600360149054906101000a900460ff16600181111561043f5761043e610b9c565b5b14610476576040517f1425571c00000000000000000000000000000000000000000000000000000000815260040160405180910390fd5b6000339080600181540180825580915050600190039060005260206000200160009091909190916101000a81548173ffffffffffffffffffffffffffffffffffffffff021916908373ffffffffffffffffffffffffffffffffffffffff1602179055503373ffffffffffffffffffffffffffffffffffffffff167f0805e1d667bddb8a95f0f09880cf94f403fb596ce79928d9f29b74203ba284d460405160405180910390a2565b6000600254905090565b600061054260405180602001604052806000815250610755565b509050806105b15747600080549050600360149054906101000a900460ff16600181111561057357610572610b9c565b5b6040517f3a8d60860000000000000000000000000000000000000000000000000000000081526004016105a893929190611145565b60405180910390fd5b6001600360146101000a81548160ff021916908360018111156105d7576105d6610b9c565b5b021790555060007f000000000000000000000000000000000000000000000000000000000000000073ffffffffffffffffffffffffffffffffffffffff16635d3b1d307f0000000000000000000000000000000000000000000000000000000000000000600160009054906101000a900467ffffffffffffffff1660037f000000000000000000000000000000000000000000000000000000000000000060016040518663ffffffff1660e01b81526004016106979594939291906111f4565b6020604051808303816000875af11580156106b6573d6000803e3d6000fd5b505050506040513d601f19601f820116820180604052508101906106da919061125c565b9050807fcd6e45c8998311cab7e9d4385596cac867e20a0587194b954fa3a731c93ce78b60405160405180910390a250505050565b6000600360009054906101000a900473ffffffffffffffffffffffffffffffffffffffff16905090565b6000600163ffffffff16905090565b6000600361ffff16905090565b600060606000600360149054906101000a900460ff16600181111561077d5761077c610b9c565b5b6000600181111561079157610790610b9c565b5b14905060007f0000000000000000000000000000000000000000000000000000000000000000600254426107c591906112b8565b119050600080600080549050119050600080471190508280156107e55750835b80156107ee5750805b80156107f75750815b9550856040518060400160405280600381526020017f30783000000000000000000000000000000000000000000000000000000000008152509550955050505050915091565b60008080549050905090565b600080828154811061085e5761085d6112ec565b5b9060005260206000200160009054906101000a900473ffffffffffffffffffffffffffffffffffffffff169050919050565b60008080549050826000815181106108ab576108aa6112ec565b5b60200260200101516108bd919061134a565b905060008082815481106108d4576108d36112ec565b5b9060005260206000200160009054906101000a900473ffffffffffffffffffffffffffffffffffffffff16905080600360006101000a81548173ffffffffffffffffffffffffffffffffffffffff021916908373ffffffffffffffffffffffffffffffffffffffff1602179055506000600360146101000a81548160ff0219169083600181111561096857610967610b9c565b5b0217905550600067ffffffffffffffff81111561098857610987610c84565b5b6040519080825280602002602001820160405280156109b65781602001602082028036833780820191505090505b50600090805190602001906109cc929190610ac1565b504260028190555060008173ffffffffffffffffffffffffffffffffffffffff16476040516109fa906113ac565b60006040518083038185875af1925050503d8060008114610a37576040519150601f19603f3d011682016040523d82523d6000602084013e610a3c565b606091505b5050905080610a77576040517f737a898c00000000000000000000000000000000000000000000000000000000815260040160405180910390fd5b8173ffffffffffffffffffffffffffffffffffffffff167f5b690ec4a06fe979403046eaeea5b3ce38524683c3001f662c8b5a829632f7df60405160405180910390a25050505050565b828054828255906000526020600020908101928215610b3a579160200282015b82811115610b395782518260006101000a81548173ffffffffffffffffffffffffffffffffffffffff021916908373ffffffffffffffffffffffffffffffffffffffff16021790555091602001919060010190610ae1565b5b509050610b479190610b4b565b5090565b5b80821115610b64576000816000905550600101610b4c565b5090565b6000819050919050565b610b7b81610b68565b82525050565b6000602082019050610b966000830184610b72565b92915050565b7f4e487b7100000000000000000000000000000000000000000000000000000000600052602160045260246000fd5b60028110610bdc57610bdb610b9c565b5b50565b6000819050610bed82610bcb565b919050565b6000610bfd82610bdf565b9050919050565b610c0d81610bf2565b82525050565b6000602082019050610c286000830184610c04565b92915050565b6000604051905090565b600080fd5b600080fd5b610c4b81610b68565b8114610c5657600080fd5b50565b600081359050610c6881610c42565b92915050565b600080fd5b6000601f19601f8301169050919050565b7f4e487b7100000000000000000000000000000000000000000000000000000000600052604160045260246000fd5b610cbc82610c73565b810181811067ffffffffffffffff82111715610cdb57610cda610c84565b5b80604052505050565b6000610cee610c2e565b9050610cfa8282610cb3565b919050565b600067ffffffffffffffff821115610d1a57610d19610c84565b5b602082029050602081019050919050565b600080fd5b6000610d43610d3e84610cff565b610ce4565b90508083825260208201905060208402830185811115610d6657610d65610d2b565b5b835b81811015610d8f5780610d7b8882610c59565b845260208401935050602081019050610d68565b5050509392505050565b600082601f830112610dae57610dad610c6e565b5b8135610dbe848260208601610d30565b91505092915050565b60008060408385031215610dde57610ddd610c38565b5b6000610dec85828601610c59565b925050602083013567ffffffffffffffff811115610e0d57610e0c610c3d565b5b610e1985828601610d99565b9150509250929050565b600080fd5b60008083601f840112610e3e57610e3d610c6e565b5b8235905067ffffffffffffffff811115610e5b57610e5a610e23565b5b602083019150836001820283011115610e7757610e76610d2b565b5b9250929050565b60008060208385031215610e9557610e94610c38565b5b600083013567ffffffffffffffff811115610eb357610eb2610c3d565b5b610ebf85828601610e28565b92509250509250929050565b600073ffffffffffffffffffffffffffffffffffffffff82169050919050565b6000610ef682610ecb565b9050919050565b610f0681610eeb565b82525050565b6000602082019050610f216000830184610efd565b92915050565b600080fd5b600067ffffffffffffffff821115610f4757610f46610c84565b5b610f5082610c73565b9050602081019050919050565b82818337600083830152505050565b6000610f7f610f7a84610f2c565b610ce4565b905082815260208101848484011115610f9b57610f9a610f27565b5b610fa6848285610f5d565b509392505050565b600082601f830112610fc357610fc2610c6e565b5b8135610fd3848260208601610f6c565b91505092915050565b600060208284031215610ff257610ff1610c38565b5b600082013567ffffffffffffffff8111156110105761100f610c3d565b5b61101c84828501610fae565b91505092915050565b60008115159050919050565b61103a81611025565b82525050565b600081519050919050565b600082825260208201905092915050565b60005b8381101561107a57808201518184015260208101905061105f565b60008484015250505050565b600061109182611040565b61109b818561104b565b93506110ab81856020860161105c565b6110b481610c73565b840191505092915050565b60006040820190506110d46000830185611031565b81810360208301526110e68184611086565b90509392505050565b60006020828403121561110557611104610c38565b5b600061111384828501610c59565b91505092915050565b60006040820190506111316000830185610efd565b61113e6020830184610efd565b9392505050565b600060608201905061115a6000830186610b72565b6111676020830185610b72565b6111746040830184610b72565b949350505050565b6000819050919050565b61118f8161117c565b82525050565b600067ffffffffffffffff82169050919050565b6111b281611195565b82525050565b600061ffff82169050919050565b6111cf816111b8565b82525050565b600063ffffffff82169050919050565b6111ee816111d5565b82525050565b600060a0820190506112096000830188611186565b61121660208301876111a9565b61122360408301866111c6565b61123060608301856111e5565b61123d60808301846111e5565b9695505050505050565b60008151905061125681610c42565b92915050565b60006020828403121561127257611271610c38565b5b600061128084828501611247565b91505092915050565b7f4e487b7100000000000000000000000000000000000000000000000000000000600052601160045260246000fd5b60006112c382610b68565b91506112ce83610b68565b92508282039050818111156112e6576112e5611289565b5b92915050565b7f4e487b7100000000000000000000000000000000000000000000000000000000600052603260045260246000fd5b7f4e487b7100000000000000000000000000000000000000000000000000000000600052601260045260246000fd5b600061135582610b68565b915061136083610b68565b9250826113705761136f61131b565b5b828206905092915050565b600081905092915050565b50565b600061139660008361137b565b91506113a182611386565b600082019050919050565b60006113b782611389565b915081905091905056fea26469706673582212201f0699d76ed4672c2ea2997213800814abaa0cd205121f91a342fc86a77ed8f364736f6c63430008110033",
  "linkReferences": {},
  "deployedLinkReferences": {}
}