{
  "_format": "hh-sol-artifact-1",
  "contractName": "Raffle",
  "sourceName": "contracts/Raffle.sol",
  "abi": [
    {
      "inputs": [
        {
          "internalType": "address",
          "name": "vrfCoordinatorV2",
          "type": "address"
        },
        {
          "internalType": "uint256",
          "name": "enteranceFee",
          "type": "uint256"
        },
        {
          "internalType": "bytes32",
          "name": "gasLane",
          "type": "bytes32"
        },
        {
          "internalType": "uint64",
          "name": "subscriptionId",
          "type": "uint64"
        },
        {
          "internalType": "uint32",
          "name": "callbackGasLimit",
          "type": "uint32"
        },
        {
          "internalType": "uint256",
          "name": "interval",
          "type": "uint256"
        }
      ],
      "stateMutability": "nonpayable",
      "type": "constructor"
    },
    {
      "inputs": [
        {
          "internalType": "address",
          "name": "have",
          "type": "address"
        },
        {
          "internalType": "address",
          "name": "want",
          "type": "address"
        }
      ],
      "name": "OnlyCoordinatorCanFulfill",
      "type": "error"
    },
    {
      "inputs": [],
      "name": "Raffle__NotEnoughETHEntered",
      "type": "error"
    },
    {
      "inputs": [],
      "name": "Raffle__NotOpen",
      "type": "error"
    },
    {
      "inputs": [],
      "name": "Raffle__TransferFaild",
      "type": "error"
    },
    {
      "inputs": [
        {
          "internalType": "uint256",
          "name": "currentBalance",
          "type": "uint256"
        },
        {
          "internalType": "uint256",
          "name": "numPlayers",
          "type": "uint256"
        },
        {
          "internalType": "uint256",
          "name": "raffleState",
          "type": "uint256"
        }
      ],
      "name": "Raffle__UpKeepNotNeeded",
      "type": "error"
    },
    {
      "anonymous": false,
      "inputs": [
        {
          "indexed": true,
          "internalType": "address",
          "name": "players",
          "type": "address"
        }
      ],
      "name": "RaffleEnter",
      "type": "event"
    },
    {
      "anonymous": false,
      "inputs": [
        {
          "indexed": true,
          "internalType": "uint256",
          "name": "reqeustId",
          "type": "uint256"
        }
      ],
      "name": "RequestedRaffleWinner",
      "type": "event"
    },
    {
      "anonymous": false,
      "inputs": [
        {
          "indexed": true,
          "internalType": "address",
          "name": "winner",
          "type": "address"
        }
      ],
      "name": "WinnerPicked",
      "type": "event"
    },
    {
      "inputs": [
        {
          "internalType": "bytes",
          "name": "",
          "type": "bytes"
        }
      ],
      "name": "checkUpkeep",
      "outputs": [
        {
          "internalType": "bool",
          "name": "upkeepNeeded",
          "type": "bool"
        },
        {
          "internalType": "bytes",
          "name": "",
          "type": "bytes"
        }
      ],
      "stateMutability": "view",
      "type": "function"
    },
    {
      "inputs": [],
      "name": "enterRaffle",
      "outputs": [],
      "stateMutability": "payable",
      "type": "function"
    },
    {
      "inputs": [],
      "name": "geNumberOfPlayers",
      "outputs": [
        {
          "internalType": "uint256",
          "name": "",
          "type": "uint256"
        }
      ],
      "stateMutability": "view",
      "type": "function"
    },
    {
      "inputs": [],
      "name": "getEntranceFee",
      "outputs": [
        {
          "internalType": "uint256",
          "name": "",
          "type": "uint256"
        }
      ],
      "stateMutability": "view",
      "type": "function"
    },
    {
      "inputs": [],
      "name": "getInterval",
      "outputs": [
        {
          "internalType": "uint256",
          "name": "",
          "type": "uint256"
        }
      ],
      "stateMutability": "view",
      "type": "function"
    },
    {
      "inputs": [],
      "name": "getLatestTimeStamp",
      "outputs": [
        {
          "internalType": "uint256",
          "name": "",
          "type": "uint256"
        }
      ],
      "stateMutability": "view",
      "type": "function"
    },
    {
      "inputs": [],
      "name": "getNumWords",
      "outputs": [
        {
          "internalType": "uint256",
          "name": "",
          "type": "uint256"
        }
      ],
      "stateMutability": "pure",
      "type": "function"
    },
    {
      "inputs": [
        {
          "internalType": "uint256",
          "name": "index",
          "type": "uint256"
        }
      ],
      "name": "getPlayer",
      "outputs": [
        {
          "internalType": "address",
          "name": "",
          "type": "address"
        }
      ],
      "stateMutability": "view",
      "type": "function"
    },
    {
      "inputs": [],
      "name": "getRaffleState",
      "outputs": [
        {
          "internalType": "enum Raffle.RaffleState",
          "name": "",
          "type": "uint8"
        }
      ],
      "stateMutability": "view",
      "type": "function"
    },
    {
      "inputs": [],
      "name": "getRecentWinner",
      "outputs": [
        {
          "internalType": "address",
          "name": "",
          "type": "address"
        }
      ],
      "stateMutability": "view",
      "type": "function"
    },
    {
      "inputs": [],
      "name": "getRequestConfirmations",
      "outputs": [
        {
          "internalType": "uint256",
          "name": "",
          "type": "uint256"
        }
      ],
      "stateMutability": "pure",
      "type": "function"
    },
    {
      "inputs": [
        {
          "internalType": "bytes",
          "name": "",
          "type": "bytes"
        }
      ],
      "name": "performUpkeep",
      "outputs": [],
      "stateMutability": "nonpayable",
      "type": "function"
    },
    {
      "inputs": [
        {
          "internalType": "uint256",
          "name": "requestId",
          "type": "uint256"
        },
        {
          "internalType": "uint256[]",
          "name": "randomWords",
          "type": "uint256[]"
        }
      ],
      "name": "rawFulfillRandomWords",
      "outputs": [],
      "stateMutability": "nonpayable",
      "type": "function"
    }
  ],
  "bytecode": "0x6101406040523480156200001257600080fd5b5060405162001835380380620018358339818101604052810190620000389190620002a0565b858073ffffffffffffffffffffffffffffffffffffffff1660808173ffffffffffffffffffffffffffffffffffffffff1681525050508460a081815250508573ffffffffffffffffffffffffffffffffffffffff1660c08173ffffffffffffffffffffffffffffffffffffffff16815250508360e0818152505082600160006101000a81548167ffffffffffffffff021916908367ffffffffffffffff1602179055508163ffffffff166101008163ffffffff16815250506000600360146101000a81548160ff021916908360018111156200011957620001186200033c565b5b0217905550426002819055508061012081815250505050505050506200036b565b600080fd5b600073ffffffffffffffffffffffffffffffffffffffff82169050919050565b60006200016c826200013f565b9050919050565b6200017e816200015f565b81146200018a57600080fd5b50565b6000815190506200019e8162000173565b92915050565b6000819050919050565b620001b981620001a4565b8114620001c557600080fd5b50565b600081519050620001d981620001ae565b92915050565b6000819050919050565b620001f481620001df565b81146200020057600080fd5b50565b6000815190506200021481620001e9565b92915050565b600067ffffffffffffffff82169050919050565b62000239816200021a565b81146200024557600080fd5b50565b60008151905062000259816200022e565b92915050565b600063ffffffff82169050919050565b6200027a816200025f565b81146200028657600080fd5b50565b6000815190506200029a816200026f565b92915050565b60008060008060008060c08789031215620002c057620002bf6200013a565b5b6000620002d089828a016200018d565b9650506020620002e389828a01620001c8565b9550506040620002f689828a0162000203565b94505060606200030989828a0162000248565b93505060806200031c89828a0162000289565b92505060a06200032f89828a01620001c8565b9150509295509295509295565b7f4e487b7100000000000000000000000000000000000000000000000000000000600052602160045260246000fd5b60805160a05160c05160e0516101005161012051611465620003d0600039600081816107de01526108870152600061069c01526000610662015260006106260152600081816102fa01526103f7015260008181610337015261038b01526114656000f3fe6080604052600436106100c25760003560e01c8063473f1ddc1161007f5780636e04ff0d116100595780636e04ff0d1461022557806391ad27b414610263578063cee5598f1461028e578063e55ae4e8146102b9576100c2565b8063473f1ddc146101a457806353a2c19a146101cf5780635f1b0fd8146101fa576100c2565b806309bc33a7146100c7578063115cbaf5146100f25780631fe543e31461011d5780632cfcc53914610146578063320229eb146101505780634585e33b1461017b575b600080fd5b3480156100d357600080fd5b506100dc6102f6565b6040516100e99190610bef565b60405180910390f35b3480156100fe57600080fd5b5061010761031e565b6040516101149190610c81565b60405180910390f35b34801561012957600080fd5b50610144600480360381019061013f9190610e35565b610335565b005b61014e6103f5565b005b34801561015c57600080fd5b50610165610564565b6040516101729190610bef565b60405180910390f35b34801561018757600080fd5b506101a2600480360381019061019d9190610eec565b61056e565b005b3480156101b057600080fd5b506101b9610755565b6040516101c69190610f7a565b60405180910390f35b3480156101db57600080fd5b506101e461077f565b6040516101f19190610bef565b60405180910390f35b34801561020657600080fd5b5061020f61078e565b60405161021c9190610bef565b60405180910390f35b34801561023157600080fd5b5061024c6004803603810190610247919061104a565b61079b565b60405161025a92919061112d565b60405180910390f35b34801561026f57600080fd5b50610278610883565b6040516102859190610bef565b60405180910390f35b34801561029a57600080fd5b506102a36108ab565b6040516102b09190610bef565b60405180910390f35b3480156102c557600080fd5b506102e060048036038101906102db919061115d565b6108b7565b6040516102ed9190610f7a565b60405180910390f35b60007f0000000000000000000000000000000000000000000000000000000000000000905090565b6000600360149054906101000a900460ff16905090565b7f000000000000000000000000000000000000000000000000000000000000000073ffffffffffffffffffffffffffffffffffffffff163373ffffffffffffffffffffffffffffffffffffffff16146103e757337f00000000000000000000000000000000000000000000000000000000000000006040517f1cf993f40000000000000000000000000000000000000000000000000000000081526004016103de92919061118a565b60405180910390fd5b6103f182826108fe565b5050565b7f000000000000000000000000000000000000000000000000000000000000000034101561044f576040517fbd4e069500000000000000000000000000000000000000000000000000000000815260040160405180910390fd5b6000600181111561046357610462610c0a565b5b600360149054906101000a900460ff16600181111561048557610484610c0a565b5b146104bc576040517f1425571c00000000000000000000000000000000000000000000000000000000815260040160405180910390fd5b6000339080600181540180825580915050600190039060005260206000200160009091909190916101000a81548173ffffffffffffffffffffffffffffffffffffffff021916908373ffffffffffffffffffffffffffffffffffffffff1602179055503373ffffffffffffffffffffffffffffffffffffffff167f0805e1d667bddb8a95f0f09880cf94f403fb596ce79928d9f29b74203ba284d460405160405180910390a2565b6000600254905090565b60006105886040518060200160405280600081525061079b565b509050806105f75747600080549050600360149054906101000a900460ff1660018111156105b9576105b8610c0a565b5b6040517f3a8d60860000000000000000000000000000000000000000000000000000000081526004016105ee939291906111b3565b60405180910390fd5b6001600360146101000a81548160ff0219169083600181111561061d5761061c610c0a565b5b021790555060007f000000000000000000000000000000000000000000000000000000000000000073ffffffffffffffffffffffffffffffffffffffff16635d3b1d307f0000000000000000000000000000000000000000000000000000000000000000600160009054906101000a900467ffffffffffffffff1660037f000000000000000000000000000000000000000000000000000000000000000060016040518663ffffffff1660e01b81526004016106dd959493929190611262565b6020604051808303816000875af11580156106fc573d6000803e3d6000fd5b505050506040513d601f19601f8201168201806040525081019061072091906112ca565b9050807fcd6e45c8998311cab7e9d4385596cac867e20a0587194b954fa3a731c93ce78b60405160405180910390a250505050565b6000600360009054906101000a900473ffffffffffffffffffffffffffffffffffffffff16905090565b6000600163ffffffff16905090565b6000600361ffff16905090565b600060606000600360149054906101000a900460ff1660018111156107c3576107c2610c0a565b5b600060018111156107d7576107d6610c0a565b5b14905060007f00000000000000000000000000000000000000000000000000000000000000006002544261080b9190611326565b1190506000806000805490501190506000804711905082801561082b5750835b80156108345750805b801561083d5750815b9550856040518060400160405280600381526020017f30783000000000000000000000000000000000000000000000000000000000008152509550955050505050915091565b60007f0000000000000000000000000000000000000000000000000000000000000000905090565b60008080549050905090565b60008082815481106108cc576108cb61135a565b5b9060005260206000200160009054906101000a900473ffffffffffffffffffffffffffffffffffffffff169050919050565b60008080549050826000815181106109195761091861135a565b5b602002602001015161092b91906113b8565b905060008082815481106109425761094161135a565b5b9060005260206000200160009054906101000a900473ffffffffffffffffffffffffffffffffffffffff16905080600360006101000a81548173ffffffffffffffffffffffffffffffffffffffff021916908373ffffffffffffffffffffffffffffffffffffffff1602179055506000600360146101000a81548160ff021916908360018111156109d6576109d5610c0a565b5b0217905550600067ffffffffffffffff8111156109f6576109f5610cf2565b5b604051908082528060200260200182016040528015610a245781602001602082028036833780820191505090505b5060009080519060200190610a3a929190610b2f565b504260028190555060008173ffffffffffffffffffffffffffffffffffffffff1647604051610a689061141a565b60006040518083038185875af1925050503d8060008114610aa5576040519150601f19603f3d011682016040523d82523d6000602084013e610aaa565b606091505b5050905080610ae5576040517f737a898c00000000000000000000000000000000000000000000000000000000815260040160405180910390fd5b8173ffffffffffffffffffffffffffffffffffffffff167f5b690ec4a06fe979403046eaeea5b3ce38524683c3001f662c8b5a829632f7df60405160405180910390a25050505050565b828054828255906000526020600020908101928215610ba8579160200282015b82811115610ba75782518260006101000a81548173ffffffffffffffffffffffffffffffffffffffff021916908373ffffffffffffffffffffffffffffffffffffffff16021790555091602001919060010190610b4f565b5b509050610bb59190610bb9565b5090565b5b80821115610bd2576000816000905550600101610bba565b5090565b6000819050919050565b610be981610bd6565b82525050565b6000602082019050610c046000830184610be0565b92915050565b7f4e487b7100000000000000000000000000000000000000000000000000000000600052602160045260246000fd5b60028110610c4a57610c49610c0a565b5b50565b6000819050610c5b82610c39565b919050565b6000610c6b82610c4d565b9050919050565b610c7b81610c60565b82525050565b6000602082019050610c966000830184610c72565b92915050565b6000604051905090565b600080fd5b600080fd5b610cb981610bd6565b8114610cc457600080fd5b50565b600081359050610cd681610cb0565b92915050565b600080fd5b6000601f19601f8301169050919050565b7f4e487b7100000000000000000000000000000000000000000000000000000000600052604160045260246000fd5b610d2a82610ce1565b810181811067ffffffffffffffff82111715610d4957610d48610cf2565b5b80604052505050565b6000610d5c610c9c565b9050610d688282610d21565b919050565b600067ffffffffffffffff821115610d8857610d87610cf2565b5b602082029050602081019050919050565b600080fd5b6000610db1610dac84610d6d565b610d52565b90508083825260208201905060208402830185811115610dd457610dd3610d99565b5b835b81811015610dfd5780610de98882610cc7565b845260208401935050602081019050610dd6565b5050509392505050565b600082601f830112610e1c57610e1b610cdc565b5b8135610e2c848260208601610d9e565b91505092915050565b60008060408385031215610e4c57610e4b610ca6565b5b6000610e5a85828601610cc7565b925050602083013567ffffffffffffffff811115610e7b57610e7a610cab565b5b610e8785828601610e07565b9150509250929050565b600080fd5b60008083601f840112610eac57610eab610cdc565b5b8235905067ffffffffffffffff811115610ec957610ec8610e91565b5b602083019150836001820283011115610ee557610ee4610d99565b5b9250929050565b60008060208385031215610f0357610f02610ca6565b5b600083013567ffffffffffffffff811115610f2157610f20610cab565b5b610f2d85828601610e96565b92509250509250929050565b600073ffffffffffffffffffffffffffffffffffffffff82169050919050565b6000610f6482610f39565b9050919050565b610f7481610f59565b82525050565b6000602082019050610f8f6000830184610f6b565b92915050565b600080fd5b600067ffffffffffffffff821115610fb557610fb4610cf2565b5b610fbe82610ce1565b9050602081019050919050565b82818337600083830152505050565b6000610fed610fe884610f9a565b610d52565b90508281526020810184848401111561100957611008610f95565b5b611014848285610fcb565b509392505050565b600082601f83011261103157611030610cdc565b5b8135611041848260208601610fda565b91505092915050565b6000602082840312156110605761105f610ca6565b5b600082013567ffffffffffffffff81111561107e5761107d610cab565b5b61108a8482850161101c565b91505092915050565b60008115159050919050565b6110a881611093565b82525050565b600081519050919050565b600082825260208201905092915050565b60005b838110156110e85780820151818401526020810190506110cd565b60008484015250505050565b60006110ff826110ae565b61110981856110b9565b93506111198185602086016110ca565b61112281610ce1565b840191505092915050565b6000604082019050611142600083018561109f565b818103602083015261115481846110f4565b90509392505050565b60006020828403121561117357611172610ca6565b5b600061118184828501610cc7565b91505092915050565b600060408201905061119f6000830185610f6b565b6111ac6020830184610f6b565b9392505050565b60006060820190506111c86000830186610be0565b6111d56020830185610be0565b6111e26040830184610be0565b949350505050565b6000819050919050565b6111fd816111ea565b82525050565b600067ffffffffffffffff82169050919050565b61122081611203565b82525050565b600061ffff82169050919050565b61123d81611226565b82525050565b600063ffffffff82169050919050565b61125c81611243565b82525050565b600060a08201905061127760008301886111f4565b6112846020830187611217565b6112916040830186611234565b61129e6060830185611253565b6112ab6080830184611253565b9695505050505050565b6000815190506112c481610cb0565b92915050565b6000602082840312156112e0576112df610ca6565b5b60006112ee848285016112b5565b91505092915050565b7f4e487b7100000000000000000000000000000000000000000000000000000000600052601160045260246000fd5b600061133182610bd6565b915061133c83610bd6565b9250828203905081811115611354576113536112f7565b5b92915050565b7f4e487b7100000000000000000000000000000000000000000000000000000000600052603260045260246000fd5b7f4e487b7100000000000000000000000000000000000000000000000000000000600052601260045260246000fd5b60006113c382610bd6565b91506113ce83610bd6565b9250826113de576113dd611389565b5b828206905092915050565b600081905092915050565b50565b60006114046000836113e9565b915061140f826113f4565b600082019050919050565b6000611425826113f7565b915081905091905056fea2646970667358221220ef3a3a608212a58cb149f01ab2c0241b3cd16aea2baa6b14b979247a7a07cf1c64736f6c63430008110033",
  "linkReferences": {},
  "deployedLinkReferences": {}
}