{
  "address": "0xe7f1725E7734CE288F8367e1Bb143E90bb3F0512",
  "abi": [
    {
      "inputs": [
        {
          "internalType": "address",
          "name": "s_priceFeedAddress",
          "type": "address"
        }
      ],
      "stateMutability": "nonpayable",
      "type": "constructor"
    },
    {
      "inputs": [],
      "name": "FundMe__NotOwner",
      "type": "error"
    },
    {
      "stateMutability": "payable",
      "type": "fallback"
    },
    {
      "inputs": [],
      "name": "MINIMUM_USD",
      "outputs": [
        {
          "internalType": "uint256",
          "name": "",
          "type": "uint256"
        }
      ],
      "stateMutability": "view",
      "type": "function"
    },
    {
      "inputs": [],
      "name": "cheaperWithdraw",
      "outputs": [],
      "stateMutability": "payable",
      "type": "function"
    },
    {
      "inputs": [],
      "name": "fund",
      "outputs": [],
      "stateMutability": "payable",
      "type": "function"
    },
    {
      "inputs": [
        {
          "internalType": "address",
          "name": "funder",
          "type": "address"
        }
      ],
      "name": "getAddressToAmountFunded",
      "outputs": [
        {
          "internalType": "uint256",
          "name": "",
          "type": "uint256"
        }
      ],
      "stateMutability": "view",
      "type": "function"
    },
    {
      "inputs": [
        {
          "internalType": "uint256",
          "name": "index",
          "type": "uint256"
        }
      ],
      "name": "getFunder",
      "outputs": [
        {
          "internalType": "address",
          "name": "",
          "type": "address"
        }
      ],
      "stateMutability": "view",
      "type": "function"
    },
    {
      "inputs": [],
      "name": "getOwner",
      "outputs": [
        {
          "internalType": "address",
          "name": "",
          "type": "address"
        }
      ],
      "stateMutability": "view",
      "type": "function"
    },
    {
      "inputs": [],
      "name": "getPriceFeed",
      "outputs": [
        {
          "internalType": "contract AggregatorV3Interface",
          "name": "",
          "type": "address"
        }
      ],
      "stateMutability": "view",
      "type": "function"
    },
    {
      "inputs": [],
      "name": "s_priceFeed",
      "outputs": [
        {
          "internalType": "contract AggregatorV3Interface",
          "name": "",
          "type": "address"
        }
      ],
      "stateMutability": "view",
      "type": "function"
    },
    {
      "inputs": [],
      "name": "withdraw",
      "outputs": [],
      "stateMutability": "nonpayable",
      "type": "function"
    },
    {
      "stateMutability": "payable",
      "type": "receive"
    }
  ],
  "transactionHash": "0x4e91291cb7bd77d129bcae1b4a1c2c33a972a1365a8e13d7a76df5b599b38f43",
  "args": [
    "0x5FbDB2315678afecb367f032d93F642f64180aa3"
  ],
  "numDeployments": 1,
  "solcInputHash": "c2cc96876b9d4df1001bf4e10f7d72b1",
  "bytecode": "0x60a06040523480156200001157600080fd5b50604051620012dd380380620012dd833981810160405281019062000037919062000120565b3373ffffffffffffffffffffffffffffffffffffffff1660808173ffffffffffffffffffffffffffffffffffffffff1660601b8152505080600260006101000a81548173ffffffffffffffffffffffffffffffffffffffff021916908373ffffffffffffffffffffffffffffffffffffffff1602179055505062000152565b600080fd5b600073ffffffffffffffffffffffffffffffffffffffff82169050919050565b6000620000e882620000bb565b9050919050565b620000fa81620000db565b81146200010657600080fd5b50565b6000815190506200011a81620000ef565b92915050565b600060208284031215620001395762000138620000b6565b5b6000620001498482850162000109565b91505092915050565b60805160601c611157620001866000396000818161038d015281816105dc0152818161062c015261082201526111576000f3fe60806040526004361061008a5760003560e01c8063893d20e811610059578063893d20e81461014d5780639e87a5cd14610178578063b60d4288146101a3578063be2693f0146101ad578063d7b4750c146101b757610099565b80630343fb25146100a35780630ec3b027146100e05780633ccfd60b1461010b5780636b69a5921461012257610099565b36610099576100976101f4565b005b6100a16101f4565b005b3480156100af57600080fd5b506100ca60048036038101906100c59190610ae5565b61031c565b6040516100d79190610b2b565b60405180910390f35b3480156100ec57600080fd5b506100f5610365565b6040516101029190610ba5565b60405180910390f35b34801561011757600080fd5b5061012061038b565b005b34801561012e57600080fd5b506101376105cb565b6040516101449190610b2b565b60405180910390f35b34801561015957600080fd5b506101626105d8565b60405161016f9190610bcf565b60405180910390f35b34801561018457600080fd5b5061018d610600565b60405161019a9190610ba5565b60405180910390f35b6101ab6101f4565b005b6101b561062a565b005b3480156101c357600080fd5b506101de60048036038101906101d99190610c16565b6108b8565b6040516101eb9190610bcf565b60405180910390f35b6802b5e3af16b1880000610233600260009054906101000a900473ffffffffffffffffffffffffffffffffffffffff16346108ff90919063ffffffff16565b11610273576040517f08c379a000000000000000000000000000000000000000000000000000000000815260040161026a90610ca0565b60405180910390fd5b6000339080600181540180825580915050600190039060005260206000200160009091909190916101000a81548173ffffffffffffffffffffffffffffffffffffffff021916908373ffffffffffffffffffffffffffffffffffffffff16021790555034600160003373ffffffffffffffffffffffffffffffffffffffff1673ffffffffffffffffffffffffffffffffffffffff16815260200190815260200160002081905550565b6000600160008373ffffffffffffffffffffffffffffffffffffffff1673ffffffffffffffffffffffffffffffffffffffff168152602001908152602001600020549050919050565b600260009054906101000a900473ffffffffffffffffffffffffffffffffffffffff1681565b7f000000000000000000000000000000000000000000000000000000000000000073ffffffffffffffffffffffffffffffffffffffff163373ffffffffffffffffffffffffffffffffffffffff1614610410576040517f579610db00000000000000000000000000000000000000000000000000000000815260040160405180910390fd5b60005b6000805490508110156104bb57600080828154811061043557610434610cc0565b5b9060005260206000200160009054906101000a900473ffffffffffffffffffffffffffffffffffffffff1690506000600160008373ffffffffffffffffffffffffffffffffffffffff1673ffffffffffffffffffffffffffffffffffffffff168152602001908152602001600020819055505080806104b390610d1e565b915050610413565b50600067ffffffffffffffff8111156104d7576104d6610d67565b5b6040519080825280602002602001820160405280156105055781602001602082028036833780820191505090505b506000908051906020019061051b9291906109db565b5060003373ffffffffffffffffffffffffffffffffffffffff164760405161054290610dc7565b60006040518083038185875af1925050503d806000811461057f576040519150601f19603f3d011682016040523d82523d6000602084013e610584565b606091505b50509050806105c8576040517f08c379a00000000000000000000000000000000000000000000000000000000081526004016105bf90610e28565b60405180910390fd5b50565b6802b5e3af16b188000081565b60007f0000000000000000000000000000000000000000000000000000000000000000905090565b6000600260009054906101000a900473ffffffffffffffffffffffffffffffffffffffff16905090565b7f000000000000000000000000000000000000000000000000000000000000000073ffffffffffffffffffffffffffffffffffffffff163373ffffffffffffffffffffffffffffffffffffffff16146106af576040517f579610db00000000000000000000000000000000000000000000000000000000815260040160405180910390fd5b60008080548060200260200160405190810160405280929190818152602001828054801561073257602002820191906000526020600020905b8160009054906101000a900473ffffffffffffffffffffffffffffffffffffffff1673ffffffffffffffffffffffffffffffffffffffff16815260200190600101908083116106e8575b5050505050905060005b81518110156107bd57600082828151811061075a57610759610cc0565b5b602002602001015190506000600160008373ffffffffffffffffffffffffffffffffffffffff1673ffffffffffffffffffffffffffffffffffffffff168152602001908152602001600020819055505080806107b590610d1e565b91505061073c565b50600067ffffffffffffffff8111156107d9576107d8610d67565b5b6040519080825280602002602001820160405280156108075781602001602082028036833780820191505090505b506000908051906020019061081d9291906109db565b5060007f000000000000000000000000000000000000000000000000000000000000000073ffffffffffffffffffffffffffffffffffffffff164760405161086490610dc7565b60006040518083038185875af1925050503d80600081146108a1576040519150601f19603f3d011682016040523d82523d6000602084013e6108a6565b606091505b50509050806108b457600080fd5b5050565b60008082815481106108cd576108cc610cc0565b5b9060005260206000200160009054906101000a900473ffffffffffffffffffffffffffffffffffffffff169050919050565b60008061090b8361093b565b90506000670de0b6b3a764000085836109249190610e48565b61092e9190610ed1565b9050809250505092915050565b6000808273ffffffffffffffffffffffffffffffffffffffff1663feaf968c6040518163ffffffff1660e01b815260040160a06040518083038186803b15801561098457600080fd5b505afa158015610998573d6000803e3d6000fd5b505050506040513d601f19601f820116820180604052508101906109bc9190610f8f565b5050509150506402540be400816109d3919061100a565b915050919050565b828054828255906000526020600020908101928215610a54579160200282015b82811115610a535782518260006101000a81548173ffffffffffffffffffffffffffffffffffffffff021916908373ffffffffffffffffffffffffffffffffffffffff160217905550916020019190600101906109fb565b5b509050610a619190610a65565b5090565b5b80821115610a7e576000816000905550600101610a66565b5090565b600080fd5b600073ffffffffffffffffffffffffffffffffffffffff82169050919050565b6000610ab282610a87565b9050919050565b610ac281610aa7565b8114610acd57600080fd5b50565b600081359050610adf81610ab9565b92915050565b600060208284031215610afb57610afa610a82565b5b6000610b0984828501610ad0565b91505092915050565b6000819050919050565b610b2581610b12565b82525050565b6000602082019050610b406000830184610b1c565b92915050565b6000819050919050565b6000610b6b610b66610b6184610a87565b610b46565b610a87565b9050919050565b6000610b7d82610b50565b9050919050565b6000610b8f82610b72565b9050919050565b610b9f81610b84565b82525050565b6000602082019050610bba6000830184610b96565b92915050565b610bc981610aa7565b82525050565b6000602082019050610be46000830184610bc0565b92915050565b610bf381610b12565b8114610bfe57600080fd5b50565b600081359050610c1081610bea565b92915050565b600060208284031215610c2c57610c2b610a82565b5b6000610c3a84828501610c01565b91505092915050565b600082825260208201905092915050565b7f4469646e27742073656e6420656e6f7570682100000000000000000000000000600082015250565b6000610c8a601383610c43565b9150610c9582610c54565b602082019050919050565b60006020820190508181036000830152610cb981610c7d565b9050919050565b7f4e487b7100000000000000000000000000000000000000000000000000000000600052603260045260246000fd5b7f4e487b7100000000000000000000000000000000000000000000000000000000600052601160045260246000fd5b6000610d2982610b12565b91507fffffffffffffffffffffffffffffffffffffffffffffffffffffffffffffffff821415610d5c57610d5b610cef565b5b600182019050919050565b7f4e487b7100000000000000000000000000000000000000000000000000000000600052604160045260246000fd5b600081905092915050565b50565b6000610db1600083610d96565b9150610dbc82610da1565b600082019050919050565b6000610dd282610da4565b9150819050919050565b7f63616c6c206661696c6564210000000000000000000000000000000000000000600082015250565b6000610e12600c83610c43565b9150610e1d82610ddc565b602082019050919050565b60006020820190508181036000830152610e4181610e05565b9050919050565b6000610e5382610b12565b9150610e5e83610b12565b9250817fffffffffffffffffffffffffffffffffffffffffffffffffffffffffffffffff0483118215151615610e9757610e96610cef565b5b828202905092915050565b7f4e487b7100000000000000000000000000000000000000000000000000000000600052601260045260246000fd5b6000610edc82610b12565b9150610ee783610b12565b925082610ef757610ef6610ea2565b5b828204905092915050565b600069ffffffffffffffffffff82169050919050565b610f2181610f02565b8114610f2c57600080fd5b50565b600081519050610f3e81610f18565b92915050565b6000819050919050565b610f5781610f44565b8114610f6257600080fd5b50565b600081519050610f7481610f4e565b92915050565b600081519050610f8981610bea565b92915050565b600080600080600060a08688031215610fab57610faa610a82565b5b6000610fb988828901610f2f565b9550506020610fca88828901610f65565b9450506040610fdb88828901610f7a565b9350506060610fec88828901610f7a565b9250506080610ffd88828901610f2f565b9150509295509295909350565b600061101582610f44565b915061102083610f44565b9250827f7fffffffffffffffffffffffffffffffffffffffffffffffffffffffffffffff048211600084136000841316161561105f5761105e610cef565b5b817f8000000000000000000000000000000000000000000000000000000000000000058312600084126000841316161561109c5761109b610cef565b5b827f800000000000000000000000000000000000000000000000000000000000000005821260008413600084121616156110d9576110d8610cef565b5b827f7fffffffffffffffffffffffffffffffffffffffffffffffffffffffffffffff058212600084126000841216161561111657611115610cef565b5b82820290509291505056fea264697066735822122062ae466daf1e2fce6a8446a0fdf5f544c171253d800cfbfeca795d5c3116e57264736f6c63430008080033",
  "devdoc": {
    "kind": "dev",
    "methods": {},
    "version": 1
  },
  "userdoc": {
    "kind": "user",
    "methods": {},
    "version": 1
  },
  "storageLayout": {
    "storage": [
      {
        "astId": 61,
        "contract": "contracts/FundMe.sol:FundMe",
        "label": "s_funders",
        "offset": 0,
        "slot": "0",
        "type": "t_array(t_address)dyn_storage"
      },
      {
        "astId": 65,
        "contract": "contracts/FundMe.sol:FundMe",
        "label": "s_addressToAmountFunded",
        "offset": 0,
        "slot": "1",
        "type": "t_mapping(t_address,t_uint256)"
      },
      {
        "astId": 70,
        "contract": "contracts/FundMe.sol:FundMe",
        "label": "s_priceFeed",
        "offset": 0,
        "slot": "2",
        "type": "t_contract(AggregatorV3Interface)45"
      }
    ],
    "types": {
      "t_address": {
        "encoding": "inplace",
        "label": "address",
        "numberOfBytes": "20"
      },
      "t_array(t_address)dyn_storage": {
        "base": "t_address",
        "encoding": "dynamic_array",
        "label": "address[]",
        "numberOfBytes": "32"
      },
      "t_contract(AggregatorV3Interface)45": {
        "encoding": "inplace",
        "label": "contract AggregatorV3Interface",
        "numberOfBytes": "20"
      },
      "t_mapping(t_address,t_uint256)": {
        "encoding": "mapping",
        "key": "t_address",
        "label": "mapping(address => uint256)",
        "numberOfBytes": "32",
        "value": "t_uint256"
      },
      "t_uint256": {
        "encoding": "inplace",
        "label": "uint256",
        "numberOfBytes": "32"
      }
    }
  }
}